:03000000020030CB
:1000300075B0F079007FFFDFFE75B0F0E5B0F454E5
:10004000F060291200A1E5B0F454F0601F7400F8CC
:10005000FA79007BFEEBF5B0000000E5B0F9F4544E
:10006000F0700F08D3EB33FBE8B404E9001200AAE8
:100070000139E930E40B30E50D30E60F30E71101CE
:100080006C7400FA01957401FA01957402FA0195F5
:100090007403FA01951199016CE875F004A42AF92A
:1000A000227C287DFFDDFEDCFA22E99000C293F578
:1000B00080D2A60000C2A6741FF580D2A70000C29D
:1000C000A7223F065B4F666D7D077F6F777C395EA9
:0400D0007971400002
:00000001FF
