:03000000020AA34E
:0C0AA300787FE4F6D8FD758155020AEA60
:100BD50025302E3566003030303030000000000002
:0A0BE5000000000000000000000006
:030C45000110009B
:0100210022BC
:0100220022BB
:040C40007F02DFFE52
:010C4400228D
:050C3400007F14DFFE4B
:010C39002298
:050C3A00007F2BDFFE2E
:010C3F002292
:090C1A00007F027EC7DEFEDFFC54
:010C230022AE
:10000300AD07AC06C3ED9401EC940050047C007D75
:0E00130001120C1AED1D70011C144C70F42229
:100C0600759850438920438780758DE8858D8BD2F2
:040C16008ED29C22BC
:080C24008F993099FDC299225D
:080B2F008F258E248D238C22FA
:100B370078267C007D007BFF7A0B79DB7E007F14B3
:100B4700120580753DFF753E0B753FD5852543859D
:100B570024428523418522407B007A0079261206AC
:100B670090E4FDFC74262DF8E6FF120C240DBD0061
:080B7700010CED640A4C70EC66
:010B7F002253
:03002300020B804D
:100B8000C0E0C0D075D00830981FC298AF100510D3
:100B900074112FF8A699D3E510940A7480948040BC
:0E0BA00003751000AF99120C24D0D0D0E032B3
:080C2C00120C06D2AFD2AC227B
:100BEF00120C2C7F9C7E447D0A7C42120B2F7FD0EF
:070BFF007E0712000380ECE9
:10063400E551243DF8E6055122783A300702783D29
:10064400E475F0011205FE0205A62000EB7F2ED210
:10065400008018EF540F2490D43440D4FF30040B9E
:10066400EF24BFB41A0050032461FFE55260021561
:10067400520555E5557002055430070D783AE47576
:10068400F0011205FEEF0205EC020BAE7403D20773
:100694008003E4C207F5518B3A8A3B893CE4F55266
:1006A400F554F555E55260077F2012066F80F57505
:1006B40053FFC201C200C202C203C205C206C2087D
:1006C40012063DFF700D3007057F00120680AF55FE
:1006D400AE5422B4255FC2D5C20412063DFF24D015
:1006E400B40A00501A75F00A785230D50508B6FFDE
:1006F4000106C6A426F620D5047002D20380D924AC
:10070400CFB41A00EF5004C2E5D20402096DD2013D
:1007140080C6D20080C0D20280BCD2D580BAD205B5
:1007240080B47F2012066F2002077401B552004086
:10073400F1120634FF12066F0206A8D208D2068010
:1007440095120634FB120634FA120634F94A4B7039
:100754000679647A0A7BFF20022EE552602A7E0025
:100764008E827583001205BF60060EEE655370F02D
:10077400C2D5EBC0E0EAC0E0E9C0E0EE1209CDD09A
:10078400E0F9D0E0FAD0E0FB1205A6FF60AAEBC0C6
:10079400E0EAC0E0E9C0E012066FD0E02401F9D03D
:1007A400E03400FAD0E0FBE5530460DCD553D98093
:1007B40087D20280A21209B060F7E55370010412D7
:1007C4000026A953600DE553600914F553120A5726
:1007D400EF60F3EA30E702F404C3995077EAF425B2
:1007E400530430E701E404F553800D1209B060C1ED
:1007F400EA05532553120026EA7850F630E701E45F
:10080400255304D55304200501141209CDE4C0E096
:10081400120A577850E6601320E70714F6120657B9
:10082400802204F6D0E014C0E07F00120657E5539E
:10083400600712064E1553800B30050312064ED086
:10084400E00206A8D0E00480C51209B060A0E55318
:10085400041200267850EAF6E553200502600104EC
:0508640024041209CD7F
:1008690074FF04C0E0120A57120657E55320050227
:10087900600312064ED0E0B553E87F451206617851
:1008890050E67F2B30E7047F2DF404C0E012066F99
:10089900D0E075F00A84C0F0120658D0E01206586C
:1008A9000206A8791080027908C206C2088008D217
:1008B900D5790A8004790AC2D5E553047002F55343
:1008C900E4FAFDFEFF120634FC7B08200113120630
:1008D90034FD7B1030000A120634FE120634FF7B09
:1008E90020EC3382D592D55013C3E43000069FFF24
:1008F900E49EFEE42001039DFDE49CFCE4CBF8C2E8
:1009090001EC700CCFCECDCCE824F8F870F3801749
:10091900C3EF33FFEE33FEED33FDEC33FCEB33FB7A
:10092900994002FB0FD8E9EB300105F8D0E0C44843
:10093900B201C0E00AEC4D4E4F78207B0070C2EA4C
:10094900B5530040BCC0E01209CFD0F0D0E020017F
:1009590004C4C0E0C4B201C0F0120658D0F0D5F00A
:10096900EB0206A812060E07455308AC5807164CA9
:1009790007124208B04F08B84408B849072B430882
:10098900BE5507EF46084D4507B9470A8450071A6F
:100999002D071E2E07412B072223073F200A6D2A08
:1009A90006DA4800000739E553B4FF037553061208
:1009B9000634FC120634FD120634FE120634FF78A2
:1009C90049020055790AA2D5200314300509B91046
:1009D900020404B9080104A2D5200602500104202A
:1009E90002689202B552005034C0E07F20300319EA
:1009F9007F30A20272067205500F120A26C202C285
:100A090006C205C2087F30800F300503E9C0E01235
:100A1900066F300503D0E0F9D0E0B552CC300517A8
:100A29007F30B9100C12066F7F583004077F788029
:100A390003B9080312066F3002057F2D02066F7F86
:100A4900202008F87F2B2006F322920280CF7F0016
:100A5900B4070050052449F8E6FF22286E756C6C2E
:100A69002900D2011206343001F8C201785230D57A
:100A79000108F60206DA2D504349581206342403B8
:100A8900B405004001E4900A7F93120660743A129B
:0A0A99000660D2037552040208AC97
:10002600F920E72824F950037907E4F42402FB18A1
:10003600DBFDE624FB5014E9600DE4F618E604F651
:0F004600B40A08E4F6D9F57401F60A22C2D522ED
:10005500ED33EC3392D5FA602AB4FF33EDC2E77B7A
:10006500FF60067A00797AE4227A00798320D50444
:100075007A00797E224E614E002B494E46002D496D
:100085004E4600E47A08F608DAFC7B00740722E89D
:10009500C0E0ECC0E0EDC0E0EEC0E0EFC0E0EA7526
:1000A500F010A4CAABF075F04DA42BFBE435F0FCC1
:1000B500EA2410FAEB34C5FBEC34D9FCEDC2E7FFBA
:1000C50075F056A4F42411C5F0F434C58FF0A42AB4
:1000D500E5F03BE43CF620E714120426D0E0FFD01F
:1000E500E0FED0E0FDD0E0FC1203598014F40412C8
:1000F5000426D0E0FFD0E0FED0E0FDD0E0FC120207
:1001050050D0E0F8E6FAEDD2E7CD33EC332482FBAC
:10011500E4C3CF33CFCE33CECD33CD33DBF37B0743
:1001250075F00A846004F6081B0AE5F0F6088FF0FE
:10013500740AA4FFACF08EF0740AA42CFEACF05047
:10014500010C8DF0740AA42CFDE435F0F608DBDE15
:030155007407220A
:1001580002049BE86480F8E933E83360110460F036
:10016800ED33EC337009E8FCE9FDEAFEEBFF22040D
:1001780060DED3EB9FEA9EE99DE8C2E78CF0C2F708
:1001880095F0400CE8CCF8E9CDF9EACEFAEBCFFBD4
:1001980012046685D0F05804700320D5B3E80470C3
:1001A800075002B2D50204A592D5EC0460F7E4CC5E
:1001B800C0E0C398F8603B94186008400DD0E0FB9D
:1001C80002047DE4FBFAC9FC8028E830E406E4C9AF
:1001D800FBE4CAFCE830E305E4C9CACBFCE85407F1
:1001E8006010F8C3E913F9EA13FAEB13FBEC13FCFC
:1001F800D8F130F52FC3E49CFCEF9BFFEE9AFEED9F
:1002080099FDD0E0FBEF4E4D4C701222DB03020447
:10021800A2EC2CFCEF33FFEE33FEED33FDED30E7BF
:10022800EB02047DEF2BFFEE3AFEED39FDD0E0FB4B
:1002380050130BBB00030204A5ED13FDEE13FEEFF4
:0802480013FFEC13FC02047D1E
:10025000EC4D6011E8497017ED33EC3304600DE4A8
:10026000FCFFFEFD22E933E8330470F802049B1220
:10027000046658046009E4CC248150062850090221
:1002800004A52840030204A2C0E0EB4A7044B980F0
:1002900006D0E0FB020491EF4E701CBD8008EBFF1E
:1002A000EAFEE9FD80EBE98DF0A4FEE5F0020339FA
:1002B000E9CDF9EAFEEBFFEF89F0A4FCE5F0CE8989
:1002C000F0A42EFFE435F0CD89F0A42DFEE435F046
:1002D0008067EF4E7005BD80D780C3EF8BF0A4AC74
:1002E000F0EE8BF0A42CFCE435F0F8EF8AF0A42CAF
:1002F000E5F038FCE433CB8DF0A42CFCE5F03BF8C2
:10030000EE8AF0A42CFCE5F038F8E433CF89F0A4B1
:100310002CFCE5F038CF3400CE89F0A42FFFE5F0B7
:100320003EFEE433C98DF0A42EFEE5F039CD8AF00F
:10033000A42FFFE5F03EFEE43DFD33D0E0FB500787
:100340000BBB000F0204A5EC2CFCEF33FFEE33FED9
:06035000ED33FD02047D07
:100356000204A5EC5D046005E85904700302049BE1
:10036600120466580460F6EC4860F2EC7004FDFE78
:10037600FF22C860DB2481C85009C398600250067A
:100386000204A29850CAF582E9294B4A7005AB824D
:1003960002049175F0007C1A7880C3EF9BEE9AED0B
:1003A60099400DC3EF9BFFEE9AFEED99FDE842F0F2
:1003B600DC23ACF0D0E0FFD0E0FED0E0FDAB822045
:1003C600E7101BEB60BAEC2CFCEF33FFEE33FEEDCF
:1003D60033FD02047DE803F830E705C0F075F00050
:1003E600EF2FFFEE33FEED33FD40B830E7C280AAB3
:1003F6003F8000004120000042C80000447A00000F
:10040600461C400047C35000497424004B18968090
:100416004CBEBC205A0E1BCA6753C21C749DC5AE87
:10042600FB60065407601C2323120454EB54386007
:100436000912044012044F120250ECF8EDF9EEFADC
:10044600EFCB22EB12044F80F1543803241C9003A7
:10045600F6FE93FC0EEE93FD0EEE930ECE93FF2268
:10046600E9D2E7C933E833F892D5EDD2E7CD33ECDC
:0704760033FC5002B2D52255
:10047D00EC30E7100FBF000C0EBE00080DBD0004E0
:10048D000BEB6014A2D5EB13FCED92E7FD2274FF8C
:10049D00FCFDFEFF22E480F8A2D574FF13FC7D80E5
:0304AD00E480EFF9
:100AAF00020BEFE493A3F8E493A34003F68001F263
:100ABF0008DFF48029E493A3F85407240CC8C33348
:100ACF00C4540F4420C8834004F456800146F6DF17
:100ADF00E4800B0102040810204080900C45E47E56
:100AEF00019360BCA3FF543F30E509541FFEE4930C
:100AFF00A360010ECF54C025E060A840B8E493A3D3
:100B0F00FAE493A3F8E493A3C8C582C8CAC583CAFD
:100B1F00F0A3C8C582C8CAC583CADFE9DEE780BEB5
:010C480000AB
:1004B000E709F608DFFA8046E709F208DFFA803E2E
:1004C00088828C83E709F0A3DFFA8032E309F6081B
:1004D000DFFA8078E309F208DFFA807088828C8383
:1004E000E309F0A3DFFA806489828A83E0A3F60837
:1004F000DFFA805889828A83E0A3F208DFFA804C11
:1005000080D280FA80C680D4806980F280338010E7
:1005100080A680EA809A80A880DA80E280CA803350
:1005200089828A83ECFAE493A3C8C582C8CCC583C8
:10053000CCF0A3C8C582C8CCC583CCDFE9DEE78098
:100540000D89828A83E493A3F608DFF9ECFAA9F017
:10055000EDFB2289828A83ECFAE0A3C8C582C8CC6D
:10056000C583CCF0A3C8C582C8CCC583CCDFEADE86
:10057000E880DB89828A83E493A3F208DFF980CCE8
:1005800088F0EF60010E4E60C388F0ED2402B404E1
:100590000050B9F582EB2402B4040050AF23234588
:0605A000822390050073A8
:1005A600BB010689828A83E0225002E722BBFE0253
:0905B600E32289828A83E4932286
:1005BF00BB010CE58229F582E5833AF583E02250F1
:1005CF0006E92582F8E622BBFE06E92582F8E2223B
:0D05DF00E58229F582E5833AF583E4932255
:1005EC00BB010689828A83F0225002F722BBFE01EE
:0205FC00F322E8
:1005FE00FAE6FB0808E6F925F0F618E6CA3AF622FE
:10060E00D083D082F8E4937012740193700DA3A37B
:10061E0093F8740193F5828883E47374029368608F
:06062E00EFA3A3A380DF8F
:100BAE00EFB40A07740D120BB9740A309811A89994
:100BBE00B8130CC2983098FDA899C298B811F630A7
:070BCE0099FDC299F599227F
:00000001FF
